{
    "_format": "hh-sol-artifact-1",
    "contractName": "Counter",
    "sourceName": "contracts/Counter.sol",
    "abi": [
        {
            "inputs": [
                {
                    "internalType": "int256",
                    "name": "_num",
                    "type": "int256"
                }
            ],
            "name": "addNumber",
            "outputs": [],
            "stateMutability": "nonpayable",
            "type": "function"
        },
        {
            "inputs": [],
            "name": "getCount",
            "outputs": [
                {
                    "internalType": "int256",
                    "name": "",
                    "type": "int256"
                }
            ],
            "stateMutability": "view",
            "type": "function"
        },
        {
            "inputs": [
                {
                    "internalType": "int256",
                    "name": "_num",
                    "type": "int256"
                }
            ],
            "name": "subtractNumber",
            "outputs": [],
            "stateMutability": "nonpayable",
            "type": "function"
        }
    ],
    "bytecode": "0x6080604052348015600f57600080fd5b506102598061001f6000396000f3fe608060405234801561001057600080fd5b50600436106100415760003560e01c806363893d1714610046578063a87d942c14610062578063e555d6f314610080575b600080fd5b610060600480360381019061005b9190610116565b61009c565b005b61006a6100b7565b6040516100779190610152565b60405180910390f35b61009a60048036038101906100959190610116565b6100c0565b005b806000808282546100ad919061019c565b9250508190555050565b60008054905090565b806000808282546100d191906101e0565b9250508190555050565b600080fd5b6000819050919050565b6100f3816100e0565b81146100fe57600080fd5b50565b600081359050610110816100ea565b92915050565b60006020828403121561012c5761012b6100db565b5b600061013a84828501610101565b91505092915050565b61014c816100e0565b82525050565b60006020820190506101676000830184610143565b92915050565b7f4e487b7100000000000000000000000000000000000000000000000000000000600052601160045260246000fd5b60006101a7826100e0565b91506101b2836100e0565b9250828201905082811215600083121683821260008412151617156101da576101d961016d565b5b92915050565b60006101eb826100e0565b91506101f6836100e0565b925082820390508181126000841216828213600085121516171561021d5761021c61016d565b5b9291505056fea264697066735822122085bfe9c1c70affa6cad4c850b164cbf30a21fcf385eacc6fff69a6778a06ea8a64736f6c634300081b0033",
    "linkReferences": {},
    "deployedLinkReferences": {}
}